:10000000CCEF03F00000000000EF00F00000000063
:0A0010000000000000000000F3D71C
:08001C000AAE029E000E120064
:100024000134083609360450085E0550D8A0053C52
:10003400095E003601360F0E0C6E0134083609369F
:10004400045000A006D0085E0550D8A0053C095E07
:1000540005D008260550D8B0053C092600360136DF
:100064000C2EEBD700B006D0045008260550D8B0AB
:08007400053C09260000120002
:10007C000B840BAE49EF00F0010E036E026A016AAD
:0A008C00006A0A360232FF0E12006D
:0E009600026A016A006A086A036A000E12001C
:1000A4000B800BAE5EEF00F0026A0AAEFF0E026E2A
:0C00B400016E006E0A360232FF0E1200D0
:1000C0000B820BAE6AEF00F00368026801680068FB
:0800D0000A360232FF0E120095
:1000D8000450000A08E10550000A05E1FF0E006E11
:1000E8007F0E016E57D00D6A096A086A0150001028
:1000F800D8B4000C015005180A6E0ABE0D1E0B6A12
:1001080005AE05D0041E051E042AD8B4052A01AE82
:1001180005D0001E011E002AD8B4012A015005107E
:100128000A6E0ABE10D07ADF0BB020D00DAE000CDC
:10013800001E011E002AD8B4012A081E091E082A1A
:10014800D8B4092A000C05AE0DD001BE07D0015065
:10015800096E0050086E016A006AE8D7016A006AF1
:10016800002A000C011E001E0B2ADDD7082AD8B46D
:10017800092A0450085CD8A4D9D70550095CD8A42A
:10018800D5D7096A086A002AD8B4012A01AECED7A1
:060198000000FF0C120044
:10019E000B6A0A6A096A00500402F4CF09F0F3CF21
:1001AE0008F001500502F4CF0BF0F3CF0AF0005027
:1001BE000502F3500926F4500A22E86A0B22015078
:1001CE000402F3500926F4500A22E86A0B2208C0F2
:1001DE0000F009C001F00AC002F00BC003F01200DB
:1001EE0033C001F0010E006E015004E000360090A5
:1001FE00FF0FFBD700C089FF5BD08C808C828C8474
:10020E008C868C888C8A8C9C8C9E71D08C908C82E7
:10021E008C848C968C988C9A8C9C8C9E68D08C80BE
:10022E008C828C948C868C888C9A8C8C8C9E5FD0D5
:10023E008C808C828C848C868C988C9A8C8C8C9EE8
:10024E0056D08C908C828C848C968C988C8A8C8CCC
:10025E008C9E4DD08C808C928C848C868C988C8AC3
:10026E008C8C8C9E44D08C808C928C848C868C88CA
:10027E008C8A8C8C8C9E3BD08C808C828C848C96C1
:10028E008C988C9A8C9C8C9E32D08C808C828C8498
:10029E008C868C888C8A8C8C8C9E29D08C808C82BF
:1002AE008C848C868C988C8A8C8C8C9E20D01FD0C3
:1002BE003250000AA2E03250010AA8E03250020A7F
:1002CE00AEE03250030AB4E03250040ABAE03250C3
:1002DE00050AC0E03250060AC6E03250070ACCE0EA
:1002EE003250080AD2E03250090AD8E0E0D71200A4
:0802FE000B6A0B86FF0E1200D3
:100306000C6A0E6A0250D8A49CEF01F001C002F0FC
:1003160000C001F0006A0E860250D8A49CEF01F0DE
:1003260001C002F0016A0E960E880250D8B4AEEFF4
:1003360001F00E50035ED8A4D8A0B3EF01F0D89018
:1003460002BEB8EF01F0003601360236032EA3EFE7
:1003560001F0B3EF01F0010E0C6E9ADEBBEF01F077
:10036600020E0C6E88DEBBEF01F0040E0C6E53DE3F
:02037600120073
:100378000900F5CFE6FF0006FBE10106F9E11200EE
:1003880000C008F00150006E016A026A036A0B6A35
:100398000C6A016A026A036A960E036E0A6A00AE64
:1003A800DCEF01F0081E001E082AD8B4002A0A8EC5
:1003B80000C001F008C000F0086A026AA0DF12005D
:1003C8001E0E1B6E040E1C6E2B0E1D6E000E1E6E76
:1003D800FF0E276EFF0E286E000E296E000E2A6E85
:1003E800FF0E236EFF0E246E000E256E000E266E85
:1003F800FF0E1F6EFF0E206E000E216E000E226E85
:10040800AC8A900EAB6E948E949C9EAA03D0AECF0D
:0604180000F0FBD712000A
:0E041E00ACB202D00000FCD72BC0ADFF120024
:10042C000450000A12E10550000A0FE10650000AC0
:10043C000CE10750000A09E1FF0E006EFF0E016E81
:10044C007F0E026EFF0E036EA4D0086A096A075075
:10045C00D8B4C1EF02F00350D8B4C5EF02F002508B
:10046C0006180A6E028E068E0E6A02C008F001C0D3
:10047C000CF000C00DF004500D5E0550D8A0053CEA
:10048C000C5E0650D8A0063C085E086A0C6A0D6A21
:10049C00D8A058EF02F0D890023201320032083264
:1004AC00010E0E6E0750035ED8A065EF02F07E0EB3
:1004BC000E240326D8B0C9EF02F06BEF02F07E0ECB
:1004CC000E240326D8A0CDEF02F0180E0B6E0D36BD
:1004DC000C3608360036013602360E360450005EF5
:1004EC000550D8A0053C015E0650D8A0063C025E23
:1004FC0006340E120EA086EF02F00D8091EF02F082
:10050C00045000260550D8B0053C01260650D8B042
:10051C00062802260D900B2E6DEF02F0B7EF02F0BD
:10052C00D8900036013602360E360450005E055067
:10053C00D8A0053C015E0650D8A0063C025E0634ED
:10054C000E10010B0D26D8B00C2AD8B4082AD8A44A
:10055C00B7EF02F008320C320D32032AD8B4C9EFCF
:10056C0002F00AAE089E0850026E0C50016E0D503F
:10057C00006ECFEF02F0010EBCDECFEF02F0020EE8
:10058C0084DDCFEF02F0040E95DDCFEF02F0080E04
:04059C006FDD1200FD
:1005A000E80E046E030E056E2BC000F02CC001F0A7
:1005B00093DD00C02FF0000E016EE80E046E030EF6
:1005C000056EEDDD00502B5C306E01502C58316E05
:1005D00030C02BF031C02CF0640E046E000E056E9E
:1005E00030C000F031C001F077DD00C02EF0640EA5
:1005F0000002F3CF00F0F4CF01F00050305E015064
:10060000315A30C02BF031C02CF00A0E046E000EAF
:10061000056E30C000F031C001F05EDD00C02DF08D
:100620000A0E0002F3CF00F0F4CF01F00050305C6E
:10063000006E01503158016E00C02BF001C02CF04B
:1006400000C032F0336A346AD2DD030E0C6E970EAE
:100650000D6E0D2EFED70C2EFCD7000000002DC015
:1006600032F0010E336E000E346EC1DD030E0C6EDF
:10067000970E0D6E0D2EFED70C2EFCD7000000003D
:100680002EC032F0020E336E000E346EB0DD030E5B
:100690000C6E970E0D6E0D2EFED70C2EFCD70000A3
:1006A00000002FC032F0030E336E000E346E9FDD5B
:1006B000030E0C6E970E0D6E0D2EFED70C2EFCD772
:0606C00000000000120022
:1006C6000B6A0350D8B4A9EF03F002500A6E028EEB
:1006D6008E0E035E03AEADEF03F0036C080E035CF3
:1006E600D8A088EF03F0036E013602C001F0026A5B
:1006F600080E035CD8A088EF03F0036E0136016A8A
:100706000350D8A4D89092EF03F00350D8B492EFD8
:1007160003F0D89002320132032E8CEF03F00BBCAB
:1007260001A09FEF03F0D8A09FEF03F0012AD8B4F1
:10073600022A02BEBCEF03F00AAEC1EF03F0021EAE
:10074600011E012AD8B4022AC1EF03F0026A016A27
:10075600C1EF03F00B800BAEC5EF03F0026A0AAEE1
:10076600C5EF03F0FF0E026E016E0A360232C5EFC8
:1007760003F0010E0C6E93DCC7EF03F0000E0C6E57
:10078600C7EF03F0FF0E0C6E0150006E0250016EB3
:0207960012004F
:10079800196A1A6A176A186A156A166A926A010E3D
:1007A800936E946A956A896A8A6A8C6A8B6A0F0161
:1007B800386B396B3A6B3B6B94869488948C948E27
:1007C800B886B06ACF0EAF6EAC84FADD0B0E0B6E36
:1007D800260E0C6E5D0E0D6E0D2EFED70C2EFCD760
:1007E8000B2EFAD70000000046D08A82196A1A6ACE
:1007F800154A162A53D0030E0C6E970E0D6E0D2E49
:10080800FED70C2EFCD7000000008A92154A162A43
:1008180045D081A00CD081A008D0060E0D6E0D2EFB
:10082800FED70000194A1A2AF6D7154A162A36D0D2
:1008380019C000F01AC001F00A0E046E000E056E11
:10084800AADC9EDD000E046E000E056E680E066EB4
:10085800840E076EE7DD33DF00C017F001C018F023
:1008680000C02BF001C02CF097DE17C02BF0D3DDB1
:10087800156A166A13D0000E161802E1000E151834
:10088800B4E0000E161802E1010E1518B4E0000ECF
:10089800161802E1020E1518BCE0CAD7A5D7FFD773
:020000040030CA
:0D000100231F3CFFBF81FF0FC00FE00F4029
:00000001FF
